:100000000C940C050C9429050C9429050C942905D5
:100010000C9429050C9429050C9429050C942905A8
:100020000C9429050C9429050C9429050C94290598
:100030000C9429050C9429050C9429050C94290588
:100040000C9429050C9429050C9429050C94290578
:100050000C9429050C9429050C9429050C94290568
:100060000C9429050C9429050707080806070807BA
:10007000070707070707070707070707060807080F
:100080000707070607070707070707060807070701
:1000900007070706070707080807080707070707EE
:1000A000070807060707080695181432A4C0AC0015
:1000B0002A2C1584A31256009097115A2572898014
:1000C0002419293944C52980910E94C2194300008E
:1000D0004886911A8AD02300490C11309170A8C02B
:1000E00080E8A18843150600A8611A0860A8C0002E
:1000F0001259453911684C00821CA9D298516000F0
:10010000528C00E023493000951842684395160050
:10011000845685C147294C009116022E24BA8600C8
:10012000159043AA2E105800272006A0E91580003C
:100130001427242D20724600910CA93924D52C00B7
:100140008916021C94B90C00A23A80CD0830000038
:10015000111D22B45264A4C0004C426811A22300B5
:1001600045564A8D149A29600486428EA93443006C
:10017000A53249915880180010C52B00270258005D
:1001800008EA09802E83000015A156849A2A60008F
:100190004856942D08B14300A0C5558016A580008F
:1001A0000A160A649800300044E4A1C88B081800BD
:1001B000210C05D52B84960008AD507495D55600BA
:1001C00051D1030AE54300008887055905688580F9
:1001D000405892B8119458000287028C01750300B0
:1001E000111850752D0A1800A506A93204D0160062
:1001F0005456484E495AA6004E8139207015800049
:1002000084605C516A960000954C4460AC8958004B
:10021000415884B24C825800141A007413143000F0
:10022000A48CA05A097048C0829D20314A6210C037
:10023000022E39486A54C000052E52684AD12180E6
:1002400014714AD025A2B000A11C53849604C000AA
:100250005027525921D48C00809A403A4B41460095
:100260008A5A4588239106004A17423154E05300C8
:10027000A21C54B2A96442C095C83910681180000C
:1002800050174A3A9D800000545A093297120C00C8
:10029000411C11C813028C00492C891C846AA5805A
:1002A0004C49A1682AC000001E01AE02F201DC0028
:1002B00029028800E502BE03880349024F02E501D6
:1002C000F9002403E5013B03A101C30061006400C0
:1002D000A302BA016B01B201A501DF017503EB02B4
:1002E0003800B2029E02960265003F009D01EA02BC
:1002F0005C01340373037000FF00C500C3002602D5
:10030000CC019000B101BC001E01DA0100018003A4
:10031000B2034E00C6013C0373036D033402650053
:1003200034009C022A0259031000E1036000B50367
:1003300004036603F300AB00A101F201ED01DB0051
:1003400076039B019D033D00A900850103009001F8
:100350001001B50323032403D2012501B201CA020F
:10036000D503ED0223033A02A602E002F3019F0047
:10037000C3003001DF00E0033C005202F2022C0215
:100380003F00FE0242013B0034005702E901030234
:10039000AE036A032002A2003B00D8030902530007
:1003A0006803BF00470062024600B4027303F10015
:1003B0009E017B00C50390034802FD0051026102CB
:1003C00029007B025400AE01A20256024302180229
:1003D0004401BE030C01D200AE02DE024201F50070
:1003E000100196018700B00295023401D501440145
:1003F000B8030203BF034B000A00D6017D0241028D
:1004000067004C002702DB00070210018800BC03D4
:100410006601870347008503FB007B012401A200DE
:10042000C10156032D02D102360173023B039E0225
:100430001E020900AC02450338023301BB03A802C7
:100440006B00C20384038A000F01770090036E00E3
:10045000F9023702A000170121016C02D800DF0267
:100460006001D100C0028A026A030F010602F50191
:100470000201A003A203630335005F008A02B201F8
:1004800052031C012E0004005601160386008D0243
:100490000D01A600F802C5013502D302B6013F02E4
:1004A0000A0073004E00C8030202030202020303A3
:1004B0000202020203020203020202030203030217
:1004C0000203020202020202030302020202030208
:1004D00003020202020302020202020202020303F8
:1004E00003030202020202029FCC0036D8009F39A9
:1004F000801E3B00FD8000631E001B9CC098ED80A9
:10050000B19E0073B30036CC00FBC000331980E706
:100510006300EF1800398CC01B9E00E6CC00DF6042
:10052000003B9980666C0099CE609E3980639B0089
:100530007766009CC6C099EC00CECC00D8E60037A8
:100540003B00B9DB0036E60018CE601D8EC036C613
:1005500000BFC000737300B1F600B1D8C031F30022
:100560009F3180399E003B7600E733001B1E0099C7
:10057000CC601B6600631E0019DE00CCD800D8F0EA
:1005800000E778001B7300B1B30018ED801CE6C0D3
:1005900099DCC099D8C0BDB000CF18001B1B00F972
:1005A000CC00DF80003C6C0006000100010006006A
:1005B000030002000200020006000100060006001F
:1005C0000500010005000400010001000100020017
:1005D00002000500050001000500020006000600FB
:1005E00006000500040002000400050003000100ED
:1005F00002000600040003000300020002000300E2
:1006000001000100040001000300030005000300D5
:1006100001000600040005000100040001000500BF
:1006200003000600050003000500020006000100AB
:1006300001000600020003000100020001000400A6
:100640000300040006000300020003000300020090
:100650000600030006000600060001000500060073
:10066000020005000600020002000400040003006E
:10067000060006000500020006000300010002005B
:100680000100030004000300010002000500060051
:10069000030002000600040004000600040002003B
:1006A000030002000200060005000500030006002A
:1006B000050004000500040003000200020005001C
:1006C0000400010001000100020006000200060013
:1006D00004000500010004000400050004000500FA
:1006E00003000500010006000600010006000500E9
:1006F00003000600030001000300040002000400E0
:1007000001000600060003000500020005000100CC
:1007100006000300060005000500020002000300B9
:1007200002000500050001000500030004000100AF
:1007300001000300030002000100020005000100A7
:10074000010006000400010005000200020006008E
:10075000040005000200030005000500040002007B
:100760000500060006000200060003000400060063
:10077000060003000400050004000100020002005E
:100780000100030001000500050002000500020051
:100790000100010006000600010002000100010046
:1007A000030001000500020001000000000000003D
:1007B0000200000000000000030000000000000034
:1007C000050000000000000008000000000000001C
:1007D0000D000000000000001500000000000000F7
:1007E00022000000000000003700000000000000B0
:1007F0005900000000000000900000000000000010
:10080000E900000000000000790100000000000085
:100810006202000000000000DB0300000000000096
:100820003D06000000000000180A00000000000063
:1008300055100000000000006D1A000000000000CC
:10084000C22A0000000000002F4500000000000048
:10085000F16F00000000000020B500000000000063
:10086000112501000000000031DA01000000000045
:1008700042FF02000000000073D9040000000000E5
:10088000B5D807000000000028B20C0000000000EE
:10089000DD8A140000000000053D2100000000007A
:1008A000E2C7350000000000E70457000000000028
:1008B000C9CC8C0000000000B0D1E30000000000B3
:1008C000799E7001000000002970540200000000B1
:1008D000A20EC50300000000CB7E19060000000038
:1008E0006D8DDE0900000000380CF80F00000000DC
:1008F000A599D61900000000DDA5CE290000000052
:10090000823FA543000000005FE5736D000000001A
:10091000E12419B100000000400A8D1E0100000012
:10092000212FA6CF01000000613933EE0200000044
:100930008268D9BD04000000E3A10CAC07000000F0
:10094000650AE6690C00000048ACF21514000000CE
:10095000ADB6D87F20000000F562CB9534000000D2
:10096000A219A41555000000977C6FAB8900000008
:10097000399613C1DE000000D012836C68010000BC
:1009800009A9962D47020000D9BB199AAF030000B0
:10099000E264B0C7F6050000BB20CA61A6090000EA
:1009A0009D857A299D0F000058A6448B43190000AD
:1009B000F52BBFB4E02800004DD2034024420000D4
:1009C00042FEC2F4046B00008FD0C63429AD000093
:1009D000D1CE89292E180100609F505E57C50100B5
:1009E000316EDA8785DD0200910D2BE6DCA2040072
:1009F000C27B056E62800700538930543F230C0090
:100A0000150536C2A1A31300688E6616E1C61F0045
:100A10007D939CD8826A330011241FBECFEFD8E0AB
:100A2000DEBFCDBF11E0A0E0B1E0E6EEF7E102C02D
:100A300005900D92AC37B107D9F721E0ACE7B1E0F2
:100A400001C01D92A238B207E1F70E94F8060C948B
:100A5000F10B0C940000CF93C82F8A3029F470E07A
:100A600060E08DE00E942B058091C00085FFFCCFE7
:100A7000C093C60090E080E0CF91089580918400FB
:100A800090918500B0E0A0E0B0991196BC01CD0135
:100A900026E0660F771F881F991F2A95D1F70895C2
:100AA0002F923F924F925F926F927F928F929F927E
:100AB000AF92BF92CF92DF92EF92FF920F931F936C
:100AC000CF93DF93CDB7DEB7C956D1090FB6F894EF
:100AD000DEBF0FBECDBFA3967FAF6EAFA39720E161
:100AE000FB0111922A95E9F72C018C01085F1F4F39
:100AF000A8961FAF0EAFA897312C212CF20185913B
:100B000094918C0130E020E040E050E0BA016A9618
:100B10008FAF6A976B961FAF6B976C962FAF6C97E2
:100B20006D963FAF6D976E964FAF6E976F965FAFB6
:100B30006F97A0966FAFA097A1967FAFA1979C01EA
:100B400040E050E060E070E080E090E0A0E00E94D3
:100B5000C70809F495C068EA662E67E0762E8824F7
:100B60008394912C1FEF180DA4961FAFA4972EE429
:100B70008216910481F138E0630E711C48E050E068
:100B8000B301CE0101960E94EB08A980BA80CB8008
:100B9000DC80ED80FE800F811885F40131966A9625
:100BA0002FAD6A976B963FAD6B976C964FAD6C9778
:100BB0006D965FAD6D976E966FAD6E976F967FADCC
:100BC0006F97A0968FADA097A1969FADA1970E9419
:100BD000BE0808F081C0A40170E060E0CE0101967B
:100BE0000E94F408A4964FADA497842E912C87FE02
:100BF00075C020E0E1E0F0E0EC0FFD1FE20FF11D19
:100C000080818823C9F0F10143E0F695E7954A9584
:100C1000E1F7A3964EAD5FADA397E40FF51FC101B9
:100C20008770992740E850E002C0569547958A950D
:100C3000E2F78081842B8083C10101962F5FA49607
:100C40005FADA497521708F0D1C0FC0133E0F695D0
:100C5000E7953A95E1F7A3966EAD7FADA397E60FC2
:100C6000F71F8770992720E830E002C03695279556
:100C70008A95E2F78081822B808372E0270E311CF7
:100C800082E0480E511CA896EEADFFADA8974E1617
:100C90005F0609F033CFC101079623E0969587954B
:100CA0002A95E1F7C759DF4F0FB6F894DEBF0FBEA4
:100CB000CDBFDF91CF911F910F91FF90EF90DF900B
:100CC000CF90BF90AF909F908F907F906F905F90EC
:100CD0004F903F902F9008954F0144CFB40153E0BF
:100CE000660F771F5A95E1F76855784F48E050E056
:100CF000CE018F5A9F4F0E94EB0862966FAC6297AD
:100D000063967FAC63976496EFAD6497A596EFAF5B
:100D1000A5976596FFAD6597A696FFAFA6976696D1
:100D2000BFAD66976796AFAD67976896EFAD68976A
:100D3000A996EFAFA9976996FFAD6997AA96FFAFFD
:100D4000AA976A962FAD6A976B963FAD6B976C9694
:100D50004FAD6C976D965FAD6D976E966FAD6E975C
:100D60006F967FAD6F97A0968FADA097A1969FAD20
:100D7000A1975301A596CFACA597A696DFACA697F1
:100D8000EB2EFA2E8F010E94BE0860F181E090E008
:100D90008C0F9D1F880D991D01E0FC010083A0961A
:100DA0008FADA097A1969FADA197A9960FADA997DA
:100DB0000E94B5086A962FAF6A976B963FAF6B9704
:100DC0006C964FAF6C976D965FAF6D976E966FAFE9
:100DD0006E976F967FAF6F97A0968FAFA097A196F3
:100DE0009FAFA19711E0811A910801CF1C0102CF9A
:100DF000CF93DF93CDB7DEB762970FB6F894DEBF1F
:100E00000FBECDBF89E190E09093C5008093C400F0
:100E100088E08093C10086E08093C20080E091E08A
:100E200090937F0180937E011092800085E08093F3
:100E300081002FEF89E698E1215080409040E1F752
:100E400000C0000057E6252E51E0352E63E3E62E64
:100E500061E0F62E70E6C72E71E0D72E8EE091E0AD
:100E60000E94110938EAA32E34E0B32E48EA842EFA
:100E700045E0942E10E000E0BE016F5F7F4FC4019B
:100E80000E9450059501285A3440F5019491891328
:100E900024C0DE01119650E040E0B80168517B4F5C
:100EA000481708F465C0F8E08F0E911C2FEFA21AC6
:100EB000B20A0D5F1F4F003C1105F1F61A8A10921D
:100EC00085001092840021E026BB0E943E052B0184
:100ED0003C0190E2A92EB12C6BC028513C4FC901B6
:100EE000B0E0A0E0BF93AF939F932F938FE291E088
:100EF0009F938F933F922F920E94FB080FB6F89416
:100F0000DEBF0FBECDBF28EAA22E22E0B22E10E037
:100F100000E0BE016F5F7F4FC5010E945005F801E0
:100F2000E859FF4FE4918E1370C0DE01119650E036
:100F300040E09501285A324028553F4F481708F4A1
:100F400081C00F5F1F4F98E0A90EB11C003411053E
:100F500001F7198A1092850010928400F1E0F6BB27
:100F60000E943E052B013C0180E2A82EB12C8AC0D4
:100F70009D91FB01E40FF51FE4914F5F5F4F9E17BA
:100F800009F48ECF2053384FAACFBE016F5F7F4F39
:100F9000C8010E9450059A8989278A8B085F1F4FD4
:100FA00087E0083A180789F791E0A91AB10819F003
:100FB00008EA15E0EACF0E943E054B015C01841867
:100FC0009508A608B7088A89C501B40128EE33E060
:100FD00040E050E00E946D080BE00E949A085F9389
:100FE0004F933F932F93BF92AF929F928F921F92F6
:100FF0001F92E8E0EF931F928FE291E09F938F930F
:10100000FF92EF920E94FB0879CF08511C4F30E00D
:1010100020E03F932F931F930F93DF92CF923F9245
:101020002F920E94FB080FB6F894DEBF0FBECDBF13
:101030009FEFEFE4F3EC9150E040F040E1F700C0A7
:1010400000000CCF9D91F901E40FF51FE4914F5F73
:101050005F4F9E1709F472CF0053184FD8CFBE01CF
:101060006F5F7F4FC8010E94500599898927898B3E
:10107000085F1F4FE4E0083A1E0789F7F1E0AF1A56
:10108000B10819F008EA12E0EACF0E943E054B01D0
:101090005C0184189508A608B7088989C501B401C0
:1010A00028EE33E040E050E00E946D080BE00E9423
:1010B0009A085F934F933F932F93BF92AF929F9263
:1010C0008F921F921F9228E02F931F92DF92CF9250
:1010D000FF92EF920E94FB08A6CFE894DF93CF9394
:1010E000FC01DB010E94D3087F936F93E9019A0111
:1010F000AC01BF93AF933F932F93DF010E94D308BE
:1011000026F46C1B7D0B820B930B9E01EB01FC0103
:101110000E94E208AF91BF912F913F910E94E20897
:10112000BE01CF01F9012F913F91CF91DF91089539
:1011300097FD1094002E083098F00850232F342F7C
:10114000452F562F672F782F892F912DF4CF159487
:1011500097958795779567955795479537952795EF
:101160000A95AAF71124002D08952A193B094C0964
:101170005D096E097F09800B910B08952A153B05C7
:101180004C055D056E057F058007910708950024D5
:10119000A7FD00942A17300540055005600570052D
:1011A000800590050895A29FB001B39FC001A39F41
:1011B000700D811D1124911DB29F700D811D112490
:1011C000911D08950E94D308460F571FC81FD91FAD
:1011D00008F431960895FB01DC0102C005900D92E0
:1011E00041505040D8F70895DC0101C06D93415043
:1011F0005040E0F70895B0E0A0E0E1E0F9E00C94A1
:10120000CA0BAE014B5F5F4FFA0161917191AF0163
:1012100080917E0190917F010E943C09E2E00C9454
:10122000E60B0F931F93CF93DF93E0917E01F09134
:101230007F012381EC0110E000E021FD08C00FEFE9
:101240001FEF14C00995892B11F00FEF1FEF899143
:1012500060917E0170917F01DB011896ED91FC9108
:101260008111F0CF8AE00995892B49F7C801DF91F8
:10127000CF911F910F910895ABE0B0E0E2E4F9E067
:101280000C94BA0B7C013B018A01FC011782168287
:10129000838181FFC8C1CE0101965C01F701938172
:1012A000F30193FD859193FF81913F01882309F418
:1012B00053C1853239F493FD859193FF81913F01AC
:1012C000853229F4B70190E00E942C0BE7CF912CD6
:1012D000212C312CFFE1F31538F08B3211F190F411
:1012E000803209F1833229F137FC3CC020ED280F10
:1012F0002A3050F536FE20C08AE0989E200D112439
:10130000922E06C08D3291F0803371F7689430F8D8
:10131000F30193FD859193FF81913F018111DACF14
:1013200021C0689431F8689432F8F2CF689433F8A9
:10133000EFCF689434F8ECCFEAE02E9E200D112414
:10134000222E689435F8E4CF8E3229F436FC04C19D
:10135000689436F8DDCF8C3619F4689437F8D8CF16
:101360008836B1F2982F9F7D95549330E0F0833604
:10137000A1F18337C1F1833509F063C02801F2E0A0
:101380004F0E511CF801C080D180692D70E036FCF1
:1013900002C06FEF7FEFC6010E94160B4C016894EC
:1013A00037F882010AC00C5F1F4FFFE3F9838824DE
:1013B0008394912C6501E89437F833FE2DC0522CAC
:1013C0008114910471F5552009F468CFB70180E2CA
:1013D00090E00E942C0B5A94F6CFF801808189830B
:1013E0000E5F1F4FE4CF2801F2E04F0E511CF801B1
:1013F000C080D180692D70E036FC02C06FEF7FEFB6
:10140000C6010E94210B4C018201D5CFB70180E2B9
:1014100090E00E942C0B2A942814190409F0B0F7CC
:10142000CECFF60137FC859137FE81916F01B70170
:1014300090E00E942C0B51105A94F1E08F1A910801
:10144000BFCF843619F0893609F077C0F80137FE2E
:101450006BC060817181828193810C5F1F4FF32D7E
:10146000FF763F2E97FF09C0909580957095619506
:101470007F4F8F4F9F4F689437F82AE030E0A501E7
:101480000E945C0BC82ECA188C2C432C36FE0CC054
:10149000E89440F8C91440F434FE05C032FC03C09F
:1014A000F32DFE7E4F2E892C44FE95C0FE01EC0DDF
:1014B000F11D8081803309F087C0242D297E422EC2
:1014C000842D8870582E43FC95C040FE8FC09C2C04
:1014D000821418F42C0C922C981844FE91C0B70179
:1014E00080E390E00E942C0B42FE09C088E790E068
:1014F00041FE02C088E590E0B7010E942C0BC914A0
:1015000008F48AC0CA94D12C9FEFC91AD90ACA0C10
:10151000DB1CF60182916F01B70190E00E942C0B59
:10152000AC14BD04B1F74FCF60817181072E000C60
:10153000880B990B0E5F1F4F92CFD32CE894D4F8F1
:101540002AE030E0853739F1232D297FD22E8F36DE
:1015500001F148F48835A9F0F701868197812B962F
:10156000E2E10C94D60B803749F08837A9F7D4FE16
:1015700002C06894D2F820E130E00DC06894D4F83D
:10158000F6CF34FE03C0822F8660D82E20E132E0F1
:1015900002C028E030E0F801D7FE0FC06081718101
:1015A000828193810C5F1F4FA5010E945C0BC82EA6
:1015B000CA183D2CE89437F867CF6081718190E0BC
:1015C00080E00E5F1F4FF0CF42FC02C0839478CFC3
:1015D0008394839475CF842D867809F471CFF6CFE8
:1015E000B70180E290E00E942C0B83948214C0F338
:1015F000512C73CF522C5818821408F46ECFF8CFA8
:10160000842D867809F47BCF8BE241FE80E247FC93
:101610008DE2B70190E071CFB70180E390E00E94C6
:101620002C0B9A946CCF8FEF9FEF99CFFC01059014
:10163000615070400110D8F7809590958E0F9F1FD4
:101640000895FC016150704001900110D8F7809519
:1016500090958E0F9F1F08950F931F93CF93DF9345
:10166000182F092FEB018B8181FD09C01FEF0FEFB0
:10167000812F902FDF91CF911F910F91089582FFBD
:1016800014C02E813F818C819D81281739073CF43D
:10169000E881F981CF0101969983888310838E8137
:1016A0009F8101969F838E83E3CFE885F985812F03
:1016B0000995892BA1F3DACFFA01AA27283051F135
:1016C000203181F1E8946F936E7F6E5F7F4F8F4F73
:1016D0009F4FAF4FB1E03ED0B4E03CD0670F781FD2
:1016E000891F9A1FA11D680F791F8A1F911DA11DB7
:1016F0006A0F711D811D911DA11D20D009F46894F0
:101700003F912AE0269F11243019305D3193DEF697
:10171000CF010895462F4770405D4193B3E00FD04D
:10172000C9F7F6CF462F4F70405D4A3318F0495D38
:1017300031FD4052419302D0A9F7EACFB4E0A6951B
:101740009795879577956795BA95C9F7009761053D
:10175000710508959B01AC010A2E06945795479593
:1017600037952795BA95C9F7620F731F841F951F88
:10177000A01D08952F923F924F925F926F927F9299
:101780008F929F92AF92BF92CF92DF92EF92FF9291
:101790000F931F93CF93DF93CDB7DEB7CA1BDB0B3D
:1017A0000FB6F894DEBF0FBECDBF09942A883988E2
:1017B00048885F846E847D848C849B84AA84B984E9
:1017C000C884DF80EE80FD800C811B81AA81B981F5
:1017D000CE0FD11D0FB6F894DEBF0FBECDBFED0109
:0617E0000895F894FFCF0C
:1017E60000000002000000002B050000000041562A
:1017F600522061746D656761333238702031364D21
:10180600487A20636F6465632D62656E6368005471
:101816005950002573206576656E74733D256C7589
:1018260020746F74616C5F75733D256C75206E73E3
:101836005F7065725F6576656E743D256C750A002E
:101846005354524553530025732056455249465921
:0C185600204641494C20256C750A00001A
:00000001FF
